{
  "address": "0x5d027f2bC23f542AdF88d24dE2E46D0c92d3D4e6",
  "abi": [
    {
      "inputs": [],
      "stateMutability": "nonpayable",
      "type": "constructor"
    },
    {
      "inputs": [],
      "name": "AssetPool__FundsAlreadyInvested",
      "type": "error"
    },
    {
      "inputs": [],
      "name": "AssetPool__NotAdmin",
      "type": "error"
    },
    {
      "inputs": [],
      "name": "AssetPool__NotEnoughBalanceInContract",
      "type": "error"
    },
    {
      "stateMutability": "payable",
      "type": "fallback"
    },
    {
      "inputs": [
        {
          "internalType": "string",
          "name": "_assetPrice",
          "type": "string"
        },
        {
          "internalType": "string",
          "name": "_title",
          "type": "string"
        },
        {
          "internalType": "string",
          "name": "_location",
          "type": "string"
        }
      ],
      "name": "createAsset",
      "outputs": [],
      "stateMutability": "nonpayable",
      "type": "function"
    },
    {
      "inputs": [],
      "name": "depositFund",
      "outputs": [],
      "stateMutability": "payable",
      "type": "function"
    },
    {
      "inputs": [
        {
          "internalType": "uint256",
          "name": "_id",
          "type": "uint256"
        }
      ],
      "name": "getAsset",
      "outputs": [
        {
          "internalType": "uint256",
          "name": "",
          "type": "uint256"
        },
        {
          "internalType": "string",
          "name": "",
          "type": "string"
        },
        {
          "internalType": "string",
          "name": "",
          "type": "string"
        },
        {
          "internalType": "string",
          "name": "",
          "type": "string"
        }
      ],
      "stateMutability": "view",
      "type": "function"
    },
    {
      "inputs": [],
      "name": "getContractBalance",
      "outputs": [
        {
          "internalType": "uint256",
          "name": "",
          "type": "uint256"
        }
      ],
      "stateMutability": "view",
      "type": "function"
    },
    {
      "inputs": [],
      "name": "getInvestedAmount",
      "outputs": [
        {
          "internalType": "uint256",
          "name": "",
          "type": "uint256"
        }
      ],
      "stateMutability": "view",
      "type": "function"
    },
    {
      "inputs": [],
      "name": "getInvestmentStatus",
      "outputs": [
        {
          "internalType": "bool",
          "name": "",
          "type": "bool"
        }
      ],
      "stateMutability": "view",
      "type": "function"
    },
    {
      "inputs": [],
      "name": "getMyBalance",
      "outputs": [
        {
          "internalType": "uint256",
          "name": "",
          "type": "uint256"
        }
      ],
      "stateMutability": "view",
      "type": "function"
    },
    {
      "inputs": [],
      "name": "invest",
      "outputs": [],
      "stateMutability": "nonpayable",
      "type": "function"
    },
    {
      "inputs": [],
      "name": "isAdmin",
      "outputs": [
        {
          "internalType": "bool",
          "name": "",
          "type": "bool"
        }
      ],
      "stateMutability": "view",
      "type": "function"
    },
    {
      "inputs": [
        {
          "internalType": "uint256",
          "name": "_withdrawAmount",
          "type": "uint256"
        }
      ],
      "name": "withdraw",
      "outputs": [],
      "stateMutability": "nonpayable",
      "type": "function"
    },
    {
      "inputs": [],
      "name": "withdrawContractFunds",
      "outputs": [],
      "stateMutability": "nonpayable",
      "type": "function"
    },
    {
      "stateMutability": "payable",
      "type": "receive"
    }
  ],
  "transactionHash": "0x24de7a50b3783677640a17ebd000743fe71f5c3c220c771f82ba0bb4be587591",
  "args": [],
  "numDeployments": 1,
  "solcInputHash": "27a4ce16f78e310b62f9959dd85457df",
  "bytecode": "0x60a060405234801561001057600080fd5b503373ffffffffffffffffffffffffffffffffffffffff1660808173ffffffffffffffffffffffffffffffffffffffff16815250506080516116e4610075600039600081816103b9015281816104810152818161083901526108f201526116e46000f3fe6080604052600436106100a05760003560e01c80638d0d8cb6116100645780638d0d8cb61461017a578063b6db75a014610184578063ce620b66146101af578063de58d156146101da578063e8b5e51f14610203578063eac8f5b81461021a576100af565b806321009423146100b95780632e1a7d4d146100d05780634c738909146100f957806362243096146101245780636f9fb98a1461014f576100af565b366100af576100ad61025a565b005b6100b761025a565b005b3480156100c557600080fd5b506100ce6103b7565b005b3480156100dc57600080fd5b506100f760048036038101906100f29190610fed565b61054c565b005b34801561010557600080fd5b5061010e61079f565b60405161011b9190611029565b60405180910390f35b34801561013057600080fd5b506101396107e6565b6040516101469190611029565b60405180910390f35b34801561015b57600080fd5b5061016461082d565b6040516101719190611029565b60405180910390f35b61018261025a565b005b34801561019057600080fd5b50610199610835565b6040516101a6919061105f565b60405180910390f35b3480156101bb57600080fd5b506101c461089c565b6040516101d1919061105f565b60405180910390f35b3480156101e657600080fd5b5061020160048036038101906101fc91906111c0565b6108f0565b005b34801561020f57600080fd5b50610218610a3c565b005b34801561022657600080fd5b50610241600480360381019061023c9190610fed565b610c83565b60405161025194939291906112ef565b60405180910390f35b662386f26fc100003410156102a4576040517f08c379a000000000000000000000000000000000000000000000000000000000815260040161029b906113bb565b60405180910390fd5b6000339080600181540180825580915050600190039060005260206000200160009091909190916101000a81548173ffffffffffffffffffffffffffffffffffffffff021916908373ffffffffffffffffffffffffffffffffffffffff16021790555034600260003373ffffffffffffffffffffffffffffffffffffffff1673ffffffffffffffffffffffffffffffffffffffff1681526020019081526020016000206000828254610356919061140a565b925050819055506000600460003373ffffffffffffffffffffffffffffffffffffffff1673ffffffffffffffffffffffffffffffffffffffff16815260200190815260200160002060006101000a81548160ff021916908315150217905550565b7f000000000000000000000000000000000000000000000000000000000000000073ffffffffffffffffffffffffffffffffffffffff163373ffffffffffffffffffffffffffffffffffffffff161461043c576040517f0c51151800000000000000000000000000000000000000000000000000000000815260040160405180910390fd5b662386f26fc1000047101561047d576040517f6a21466c00000000000000000000000000000000000000000000000000000000815260040160405180910390fd5b60007f000000000000000000000000000000000000000000000000000000000000000073ffffffffffffffffffffffffffffffffffffffff16476040516104c390611491565b60006040518083038185875af1925050503d8060008114610500576040519150601f19603f3d011682016040523d82523d6000602084013e610505565b606091505b5050905080610549576040517f08c379a0000000000000000000000000000000000000000000000000000000008152600401610540906114f2565b60405180910390fd5b50565b60001515600460003373ffffffffffffffffffffffffffffffffffffffff1673ffffffffffffffffffffffffffffffffffffffff16815260200190815260200160002060009054906101000a900460ff161515146105d6576040517f9093871c00000000000000000000000000000000000000000000000000000000815260040160405180910390fd5b662386f26fc10000471015610617576040517f6a21466c00000000000000000000000000000000000000000000000000000000815260040160405180910390fd5b600260003373ffffffffffffffffffffffffffffffffffffffff1673ffffffffffffffffffffffffffffffffffffffff16815260200190815260200160002054811115610699576040517f08c379a00000000000000000000000000000000000000000000000000000000081526004016106909061155e565b60405180910390fd5b80600260003373ffffffffffffffffffffffffffffffffffffffff1673ffffffffffffffffffffffffffffffffffffffff16815260200190815260200160002060008282546106e8919061157e565b9250508190555060003373ffffffffffffffffffffffffffffffffffffffff168260405161071590611491565b60006040518083038185875af1925050503d8060008114610752576040519150601f19603f3d011682016040523d82523d6000602084013e610757565b606091505b505090508061079b576040517f08c379a0000000000000000000000000000000000000000000000000000000008152600401610792906114f2565b60405180910390fd5b5050565b6000600260003373ffffffffffffffffffffffffffffffffffffffff1673ffffffffffffffffffffffffffffffffffffffff16815260200190815260200160002054905090565b6000600360003373ffffffffffffffffffffffffffffffffffffffff1673ffffffffffffffffffffffffffffffffffffffff16815260200190815260200160002054905090565b600047905090565b60007f000000000000000000000000000000000000000000000000000000000000000073ffffffffffffffffffffffffffffffffffffffff163373ffffffffffffffffffffffffffffffffffffffff1614156108945760019050610899565b600090505b90565b6000600460003373ffffffffffffffffffffffffffffffffffffffff1673ffffffffffffffffffffffffffffffffffffffff16815260200190815260200160002060009054906101000a900460ff16905090565b7f000000000000000000000000000000000000000000000000000000000000000073ffffffffffffffffffffffffffffffffffffffff163373ffffffffffffffffffffffffffffffffffffffff1614610975576040517f0c51151800000000000000000000000000000000000000000000000000000000815260040160405180910390fd5b61097d610ed8565b60018054905081600001818152505083816020018190525082816040018190525081816060018190525060018190806001815401808255809150506001900390600052602060002090600402016000909190919091506000820151816000015560208201518160010190805190602001906109f9929190610f00565b506040820151816002019080519060200190610a16929190610f00565b506060820151816003019080519060200190610a33929190610f00565b50505050505050565b60001515600460003373ffffffffffffffffffffffffffffffffffffffff1673ffffffffffffffffffffffffffffffffffffffff16815260200190815260200160002060009054906101000a900460ff16151514610ac6576040517f9093871c00000000000000000000000000000000000000000000000000000000815260040160405180910390fd5b662386f26fc10000600260003373ffffffffffffffffffffffffffffffffffffffff1673ffffffffffffffffffffffffffffffffffffffff168152602001908152602001600020541015610b4f576040517f08c379a0000000000000000000000000000000000000000000000000000000008152600401610b46906115fe565b60405180910390fd5b6001600460003373ffffffffffffffffffffffffffffffffffffffff1673ffffffffffffffffffffffffffffffffffffffff16815260200190815260200160002060006101000a81548160ff021916908315150217905550600260003373ffffffffffffffffffffffffffffffffffffffff1673ffffffffffffffffffffffffffffffffffffffff16815260200190815260200160002054600360003373ffffffffffffffffffffffffffffffffffffffff1673ffffffffffffffffffffffffffffffffffffffff1681526020019081526020016000206000828254610c35919061140a565b925050819055506000600260003373ffffffffffffffffffffffffffffffffffffffff1673ffffffffffffffffffffffffffffffffffffffff16815260200190815260200160002081905550565b60006060806060600085905060018181548110610ca357610ca261161e565b5b90600052602060002090600402016000015460018281548110610cc957610cc861161e565b5b906000526020600020906004020160010160018381548110610cee57610ced61161e565b5b906000526020600020906004020160020160018481548110610d1357610d1261161e565b5b9060005260206000209060040201600301828054610d309061167c565b80601f0160208091040260200160405190810160405280929190818152602001828054610d5c9061167c565b8015610da95780601f10610d7e57610100808354040283529160200191610da9565b820191906000526020600020905b815481529060010190602001808311610d8c57829003601f168201915b50505050509250818054610dbc9061167c565b80601f0160208091040260200160405190810160405280929190818152602001828054610de89061167c565b8015610e355780601f10610e0a57610100808354040283529160200191610e35565b820191906000526020600020905b815481529060010190602001808311610e1857829003601f168201915b50505050509150808054610e489061167c565b80601f0160208091040260200160405190810160405280929190818152602001828054610e749061167c565b8015610ec15780601f10610e9657610100808354040283529160200191610ec1565b820191906000526020600020905b815481529060010190602001808311610ea457829003601f168201915b505050505090509450945094509450509193509193565b6040518060800160405280600081526020016060815260200160608152602001606081525090565b828054610f0c9061167c565b90600052602060002090601f016020900481019282610f2e5760008555610f75565b82601f10610f4757805160ff1916838001178555610f75565b82800160010185558215610f75579182015b82811115610f74578251825591602001919060010190610f59565b5b509050610f829190610f86565b5090565b5b80821115610f9f576000816000905550600101610f87565b5090565b6000604051905090565b600080fd5b600080fd5b6000819050919050565b610fca81610fb7565b8114610fd557600080fd5b50565b600081359050610fe781610fc1565b92915050565b60006020828403121561100357611002610fad565b5b600061101184828501610fd8565b91505092915050565b61102381610fb7565b82525050565b600060208201905061103e600083018461101a565b92915050565b60008115159050919050565b61105981611044565b82525050565b60006020820190506110746000830184611050565b92915050565b600080fd5b600080fd5b6000601f19601f8301169050919050565b7f4e487b7100000000000000000000000000000000000000000000000000000000600052604160045260246000fd5b6110cd82611084565b810181811067ffffffffffffffff821117156110ec576110eb611095565b5b80604052505050565b60006110ff610fa3565b905061110b82826110c4565b919050565b600067ffffffffffffffff82111561112b5761112a611095565b5b61113482611084565b9050602081019050919050565b82818337600083830152505050565b600061116361115e84611110565b6110f5565b90508281526020810184848401111561117f5761117e61107f565b5b61118a848285611141565b509392505050565b600082601f8301126111a7576111a661107a565b5b81356111b7848260208601611150565b91505092915050565b6000806000606084860312156111d9576111d8610fad565b5b600084013567ffffffffffffffff8111156111f7576111f6610fb2565b5b61120386828701611192565b935050602084013567ffffffffffffffff81111561122457611223610fb2565b5b61123086828701611192565b925050604084013567ffffffffffffffff81111561125157611250610fb2565b5b61125d86828701611192565b9150509250925092565b600081519050919050565b600082825260208201905092915050565b60005b838110156112a1578082015181840152602081019050611286565b838111156112b0576000848401525b50505050565b60006112c182611267565b6112cb8185611272565b93506112db818560208601611283565b6112e481611084565b840191505092915050565b6000608082019050611304600083018761101a565b818103602083015261131681866112b6565b9050818103604083015261132a81856112b6565b9050818103606083015261133e81846112b6565b905095945050505050565b7f596f75206e65656420746f206465706f736974206174206c6561737420302e3060008201527f3120457468000000000000000000000000000000000000000000000000000000602082015250565b60006113a5602583611272565b91506113b082611349565b604082019050919050565b600060208201905081810360008301526113d481611398565b9050919050565b7f4e487b7100000000000000000000000000000000000000000000000000000000600052601160045260246000fd5b600061141582610fb7565b915061142083610fb7565b9250827fffffffffffffffffffffffffffffffffffffffffffffffffffffffffffffffff03821115611455576114546113db565b5b828201905092915050565b600081905092915050565b50565b600061147b600083611460565b91506114868261146b565b600082019050919050565b600061149c8261146e565b9150819050919050565b7f43616c6c204661696c6564000000000000000000000000000000000000000000600082015250565b60006114dc600b83611272565b91506114e7826114a6565b602082019050919050565b6000602082019050818103600083015261150b816114cf565b9050919050565b7f596f7520646f6e2774206861766520656e6f7567682062616c616e6365000000600082015250565b6000611548601d83611272565b915061155382611512565b602082019050919050565b600060208201905081810360008301526115778161153b565b9050919050565b600061158982610fb7565b915061159483610fb7565b9250828210156115a7576115a66113db565b5b828203905092915050565b7f46756e647320746f6f206c6f7720746f20696e76657374000000000000000000600082015250565b60006115e8601783611272565b91506115f3826115b2565b602082019050919050565b60006020820190508181036000830152611617816115db565b9050919050565b7f4e487b7100000000000000000000000000000000000000000000000000000000600052603260045260246000fd5b7f4e487b7100000000000000000000000000000000000000000000000000000000600052602260045260246000fd5b6000600282049050600182168061169457607f821691505b602082108114156116a8576116a761164d565b5b5091905056fea26469706673582212206008945fbe61f8a6921c0630ec0fbe6c0d166446a6078ef77c6337e38ffc7b9e64736f6c63430008090033",
  "devdoc": {
    "kind": "dev",
    "methods": {},
    "version": 1
  },
  "userdoc": {
    "kind": "user",
    "methods": {},
    "version": 1
  },
  "storageLayout": {
    "storage": [
      {
        "astId": 10,
        "contract": "contracts/AssetPool.sol:AssetPool",
        "label": "clients",
        "offset": 0,
        "slot": "0",
        "type": "t_array(t_address)dyn_storage"
      },
      {
        "astId": 14,
        "contract": "contracts/AssetPool.sol:AssetPool",
        "label": "assetsArr",
        "offset": 0,
        "slot": "1",
        "type": "t_array(t_struct(Asset)37_storage)dyn_storage"
      },
      {
        "astId": 20,
        "contract": "contracts/AssetPool.sol:AssetPool",
        "label": "addressToAmount",
        "offset": 0,
        "slot": "2",
        "type": "t_mapping(t_address,t_uint256)"
      },
      {
        "astId": 24,
        "contract": "contracts/AssetPool.sol:AssetPool",
        "label": "addressToInvestment",
        "offset": 0,
        "slot": "3",
        "type": "t_mapping(t_address,t_uint256)"
      },
      {
        "astId": 28,
        "contract": "contracts/AssetPool.sol:AssetPool",
        "label": "investmentFlag",
        "offset": 0,
        "slot": "4",
        "type": "t_mapping(t_address,t_bool)"
      }
    ],
    "types": {
      "t_address": {
        "encoding": "inplace",
        "label": "address",
        "numberOfBytes": "20"
      },
      "t_array(t_address)dyn_storage": {
        "base": "t_address",
        "encoding": "dynamic_array",
        "label": "address[]",
        "numberOfBytes": "32"
      },
      "t_array(t_struct(Asset)37_storage)dyn_storage": {
        "base": "t_struct(Asset)37_storage",
        "encoding": "dynamic_array",
        "label": "struct AssetPool.Asset[]",
        "numberOfBytes": "32"
      },
      "t_bool": {
        "encoding": "inplace",
        "label": "bool",
        "numberOfBytes": "1"
      },
      "t_mapping(t_address,t_bool)": {
        "encoding": "mapping",
        "key": "t_address",
        "label": "mapping(address => bool)",
        "numberOfBytes": "32",
        "value": "t_bool"
      },
      "t_mapping(t_address,t_uint256)": {
        "encoding": "mapping",
        "key": "t_address",
        "label": "mapping(address => uint256)",
        "numberOfBytes": "32",
        "value": "t_uint256"
      },
      "t_string_storage": {
        "encoding": "bytes",
        "label": "string",
        "numberOfBytes": "32"
      },
      "t_struct(Asset)37_storage": {
        "encoding": "inplace",
        "label": "struct AssetPool.Asset",
        "members": [
          {
            "astId": 30,
            "contract": "contracts/AssetPool.sol:AssetPool",
            "label": "id",
            "offset": 0,
            "slot": "0",
            "type": "t_uint256"
          },
          {
            "astId": 32,
            "contract": "contracts/AssetPool.sol:AssetPool",
            "label": "assetPrice",
            "offset": 0,
            "slot": "1",
            "type": "t_string_storage"
          },
          {
            "astId": 34,
            "contract": "contracts/AssetPool.sol:AssetPool",
            "label": "title",
            "offset": 0,
            "slot": "2",
            "type": "t_string_storage"
          },
          {
            "astId": 36,
            "contract": "contracts/AssetPool.sol:AssetPool",
            "label": "location",
            "offset": 0,
            "slot": "3",
            "type": "t_string_storage"
          }
        ],
        "numberOfBytes": "128"
      },
      "t_uint256": {
        "encoding": "inplace",
        "label": "uint256",
        "numberOfBytes": "32"
      }
    }
  }
}